:020000040800F2
:100000000000022035030008FD0800080909000867
:100010000F090008150900081B090008000000006E
:10002000000000000000000000000000210900089E
:100030002D090008000000003909000845090008E2
:100040008503000885030008850300088503000870
:100050008503000885030008850300088503000860
:100060008503000885030008850300088503000850
:100070008503000885030008850300088503000840
:100080008503000885030008850300088503000830
:100090008503000885030008850300088503000820
:1000A0008503000885030008850300088503000810
:1000B0008503000885030008850300088503000800
:1000C000850300088503000885030008510900081E
:1000D00085030008650900088503000885030008FA
:1000E00085030008850300088503000885030008D0
:1000F00085030008850300088503000885030008C0
:1001000085030008850300088503000885030008AF
:10011000850300088503000885030008850300089F
:100120008503000885030008850300087909000895
:10013000850300088503000885030008850300087F
:10014000850300088503000885030008850300086F
:10015000850300088503000885030008850300085F
:10016000850300088503000885030008850300084F
:1001700085030008850300088503000800000000CF
:08018000850300088503000857
:1001880053B94AB9002908BF00281CBF4FF0FF31F6
:100198004FF0FF3000F00CB8ADF1080C6DE904CE5B
:1001A80003F03EFADDF804E0DDE9022304B070470D
:1001B800704700BF844641EA000313F0030349D1A6
:1001C800403A23D30B6803604B6843608B688360B5
:1001D800CB68C3600B6903614B6943618B698361B9
:1001E800CB69C3610B6A03624B6A43628B6A8362A1
:1001F800CB6AC3620B6B03634B6B43638B6B836389
:10020800CB6BC36340304031403ADBD230320BD342
:100218000B6803604B6843608B688360CB68C3607E
:1002280010301031103AF3D20C3205D351F8043B98
:1002380040F8043B043AF9D2043208D0D2071CBF74
:1002480011F8013B00F8013B01D30B88038060469D
:10025800704700BF082A13D38B07B1D010F00303EF
:10026800AED0C3F10403D21ADB071CBF11F8013B5F
:1002780000F8013BA4D331F8023B20F8023B9FE78A
:10028800043AD9D3013A11F8013B00F8013BF9D2FD
:100298000B7803704B7843708B7883706046704797
:1002A8000348044B834202D0034B03B118477047FD
:1002B800140C0020140C002000000000054806491A
:1002C800091A891001EBD171491002D0034B03B10F
:1002D80018477047140C0020140C00200000000080
:1002E80010B5064C237843B9FFF7DAFF044B13B176
:1002F8000448AFF300800123237010BD140C0020C4
:10030800000000008852000808B5054B1BB10549DC
:100318000548AFF30080BDE80840FFF7CFBF00BF36
:1003280000000000180C002088520008DFF834D0C4
:10033800002103E00C4B5B58435004310B480C4B35
:1003480042189A42F6D30B4A02E0002342F8043BD3
:10035800094B9A42F9D300F08FFB03F0CFFA00F073
:1003680049F87047000002200853000800000020E8
:10037800140C0020140C00209C0D0020FEE7000047
:1003880080B586B000AFF860B9607A6000237B6101
:10039800FB68022B1EDD4FF0FF3325E04FF6FF739D
:1003A8000122B968124802F028FABB6893F90030B4
:1003B8000A2B09D13B690D221A704FF6FF730122EF
:1003C80039690B4802F019FA7B6901337B61BB6814
:1003D8000133BB60BB6893F90030002B03D07A6906
:1003E8007B689A42DADB7B6918461837BD4680BDC0
:1003F800680C002080B500AF00F06CFB00F05AF8E4
:1004080000F040F900F01EF900F0BCF800F0F0F838
:10041800234803F02FFB2821224802F011FF322243
:100428004FF47F411F4803F0D1F832224FF47F0187
:100438001C4803F0CBF83222FF211A4803F0C6F813
:1004480032221949174803F0C1F832224FF0FF1140
:10045800144803F0BBF832224FF6FF71114803F03D
:10046800B5F8104802F024FF4FF4FA7000F0A0FB32
:100478000E4803F0FFFA64220B490A4803F04AF8D1
:10048800084802F015FF4FF4FA7000F091FB084895
:1004980003F0F0FA6421034803F003F8BFE700BF54
:1004A800A0520008640D002000FFFF00B0520008B1
:1004B800C052000880B594B000AF07F12003302285
:1004C8000021184603F03EFA07F10C0300221A60D7
:1004D8005A609A60DA601A610023BB60274B1B6C74
:1004E800264A43F080531364244B1B6C03F080535B
:1004F800BB60BB6800237B60214B1B68204A43F428
:10050800804313601E4B1B6803F480437B607B6849
:1005180002233B620123FB6210233B630223BB637C
:100528000023FB6308233B6440237B640423BB64F0
:100538000423FB6407F12003184601F0B1F90346D0
:10054800002B01D000F0D8F80F23FB6002233B6199
:1005580000237B610023BB610023FB6107F10C03CF
:100568000121184601F0DEFB0346002B01D000F004
:10057800C3F800BF5037BD4680BD00BF00380240F9
:100588000070004080B500AF174B184A1A60164B30
:100598004FF482725A60144B00229A60124B002268
:1005A800DA60114B02221A610F4B01225A610E4B7D
:1005B8004FF400729A610C4B1022DA610A4B002248
:1005C8001A62094B00225A62074B00229A62064BB4
:1005D8000A22DA62044801F06BFD0346002B01D0C1
:1005E80000F08AF800BF80BDA80C00200030014050
:1005F80080B500AF114B124A1A60104B4FF4E1322C
:100608005A600E4B00229A600C4B0022DA600B4BAA
:1006180000221A61094B0C225A61084B00229A6188
:10062800064B0022DA61054802F09AF80346002BCF
:1006380001D000F061F800BF80BD00BF680C002049
:100648000010014080B582B000AF00237B600C4BE6
:100658001B6B0B4A43F480031363094B1B6B03F4B6
:1006680080037B607B68002200213B2000F099FB1F
:100678003B2000F0B2FB00BF0837BD4680BD00BF7D
:100688000038024080B588B000AF0023BB60184B2B
:100698001B6B174A43F001031363154B1B6B03F0E5
:1006A8000103BB60BB6800237B60114B1B6B104AC6
:1006B80043F0020313630E4B1B6B03F002037B60D2
:1006C8007B68002202210B4801F0D2F80223FB606C
:1006D80001233B6100237B610023BB6107F10C030D
:1006E8001946044800F02AFF00BF2037BD4680BDE8
:1006F800003802400004024080B400AF00BFBD468D
:1007080080BC704780B483B000AF00237B600F4B80
:100718005B6C0E4A43F4804353640C4B5B6C03F4EC
:1007280080437B607B6800233B60084B1B6C074A57
:1007380043F080531364054B1B6C03F080533B60FC
:100748003B6800BF0C37BD4680BC7047003802408C
:1007580080B58AB000AF786007F1140300221A60F0
:100768005A609A60DA601A617B681B68344A93425F
:1007780062D100233B61334B5B6C324A43F48053B4
:100788005364304B5B6C03F480533B613B6900233B
:10079800FB602C4B1B6B2B4A43F001031363294B63
:1007A8001B6B03F00103FB60FB68A0237B61022342
:1007B800BB610023FB6103233B6205237B6207F1D6
:1007C80014031946204800F0B9FE204B204A1A604D
:1007D8001E4B4FF0C0625A601C4B40229A601B4B64
:1007E8000022DA60194B4FF480621A61174B00221D
:1007F8005A61164B00229A61144B0022DA61134B9E
:100808004FF440321A62114B00225A620F4800F02E
:10081800FFFA0346002B01D0FFF76EFF7B680B4AF7
:100828009A640A4A7B68936300220021232000F01F
:10083800B8FA232000F0D1FA00BF2837BD4680BDA2
:10084800003001400038024000000240000D002046
:100858005864024080B58AB000AF786007F114038D
:1008680000221A605A609A60DA601A617B681B6815
:100878001D4A934234D100233B611C4B5B6C1B4ADD
:1008880043F010035364194B5B6C03F010033B6196
:100898003B690023FB60154B1B6B144A43F00103B3
:1008A8001363124B1B6B03F00103FB60FB684FF4EF
:1008B800C0637B610223BB610123FB6103233B62AD
:1008C80007237B6207F114031946094800F036FE36
:1008D80000220021252000F064FA252000F07DFA8E
:1008E80000BF2837BD4680BD0010014000380240D7
:1008F8000000024080B400AF00BFBD4680BC704716
:1009080080B400AFFEE780B400AFFEE780B400AF6C
:10091800FEE780B400AFFEE780B400AF00BFBD467D
:1009280080BC704780B400AF00BFBD4680BC704734
:1009380080B400AF00BFBD4680BC704780B500AF33
:1009480000F01AF900BF80BD80B500AF024801F081
:10095800C1FC00BF80BD00BFA80C002080B500AF5F
:10096800024801F0E3FF00BF80BD00BF680C002013
:1009780080B500AF024800F07BFB00BF80BD00BF20
:10098800000D002080B586B000AFF860B9607A60CD
:1009980000237B610AE0AFF300800146BB685A1C64
:1009A800BA604AB21A707B6901337B617A697B68E5
:1009B8009A42F0DB7B6818461837BD4680BD0000B8
:1009C80080B584B000AF7860114B1B68002B02D152
:1009D8000F4B104A1A600E4B1B68FB600C4B1A68D1
:1009E8007B6813446A46934207D902F081FF0246A6
:1009F8000C2313604FF0FF3306E0054B1A687B6841
:100A08001344034A1360FB6818461037BD4680BD7F
:100A1800300C00209C0D002080B483B000AF7860BB
:100A28004FF0FF3318460C37BD4680BC704780B482
:100A380083B000AF786039603B684FF400525A6069
:100A4800002318460C37BD4680BC704780B483B07D
:100A580000AF7860012318460C37BD4680BC70474C
:100A680080B485B000AFF860B9607A60002318469A
:100A78001437BD4680BC704780B400AF124B1B686A
:100A8800114A43F0010313600F4B00229A600E4B8A
:100A98001B680D4A23F0847323F4803313600A4BD8
:100AA8000A4A5A60084B1B68074A23F480231360DC
:100AB800054B0022DA60064B4FF000629A6000BFD7
:100AC800BD4680BC704700BF00380240103000248B
:100AD80000ED00E080B500AF0E4B1B680D4A43F4F3
:100AE800007313600B4B1B680A4A43F4806313605E
:100AF800084B1B68074A43F480731360032000F017
:100B080045F9002000F008F8FFF7FCFD002318461F
:100B180080BD00BF003C024080B582B000AF786065
:100B2800124B1A68124B1B7819464FF47A73B3FBB1
:100B3800F1F3B2FBF3F3184600F05DF90346002B1E
:100B480001D001230EE07B680F2B0AD800227968B8
:100B58004FF0FF3000F025F9064A7B681360002348
:100B680000E0012318460837BD4680BD000000207C
:100B7800080000200400002080B400AF054B1B785B
:100B88001A46054B1B681344034A136000BFBD4651
:100B980080BC704708000020600D002080B400AFC2
:100BA800024B1B681846BD4680BC7047600D00208C
:100BB80080B584B000AF7860FFF7F0FFB8607B685D
:100BC800FB60FB68B3F1FF3F05D0094B1B781A4661
:100BD800FB681344FB6000BFFFF7E0FF0246BB68F9
:100BE800D31AFA689A42F7D800BF1037BD4680BDBD
:100BF8000800002080B485B000AF78607B6803F0FF
:100C08000703FB600C4BDB68BB60BA684FF6FF0359
:100C18001340BB60FB681A02BB68134343F0BF6311
:100C280043F40033BB60044ABB68D36000BF143789
:100C3800BD4680BC704700BF00ED00E080B400AF47
:100C4800044BDB681B0A03F007031846BD4680BC4B
:100C5800704700BF00ED00E080B483B000AF0346EA
:100C6800FB7197F90730002B0BDBFB7903F01F02B0
:100C7800064997F907305B09012000FA02F241F8AA
:100C8800232000BF0C37BD4680BC704700E100E060
:100C980080B483B000AF03463960FB7197F9073021
:100CA800002B0ADB3B68DAB20C4997F907301201CE
:100CB800D2B20B4483F800230AE03B68DAB2084951
:100CC800FB7903F00F03043B1201D2B20B441A76EE
:100CD80000BF0C37BD4680BC704700BF00E100E094
:100CE80000ED00E080B489B000AFF860B9607A60C8
:100CF800FB6803F00703FB61FB69C3F10703042BDF
:100D080028BF0423BB61FB690433062B02D9FB69A6
:100D1800033B00E000237B614FF0FF32BB6902FA1E
:100D280003F3DA43BB681A407B699A404FF0FF31FE
:100D38007B6901FA03F3D9437B680B4013431846D8
:100D48002437BD4680BC704780B582B000AF78605C
:100D58007B68013BB3F1807F01D301230FE00A4A8E
:100D68007B68013B53600F214FF0FF30FFF790FF86
:100D7800054B00229A60044B07221A60002318468C
:100D88000837BD4680BD00BF10E000E080B582B0E6
:100D980000AF78607868FFF72DFF00BF0837BD46C1
:100DA80080BD80B586B000AF0346B9607A60FB733A
:100DB80000237B61FFF742FF78617A68B968786938
:100DC800FFF790FF024697F90F3011461846FFF7D4
:100DD8005FFF00BF1837BD4680BD80B582B000AF49
:100DE8000346FB7197F907301846FFF735FF00BF38
:100DF8000837BD4680BD80B582B000AF786078689E
:100E0800FFF7A2FF034618460837BD4680BD00001D
:100E180080B586B000AF786000237B61FFF7BEFE27
:100E280038617B68002B01D1012399E07B6800229F
:100E380083F834207B68022283F835207B681B689E
:100E48001A687B681B6822F001021A600FE0FFF73E
:100E5800A5FE02463B69D31A052B08D97B682022D8
:100E68005A657B68032283F83520032378E07B6882
:100E78001B681B6803F00103002BE8D17B681B6823
:100E88001B687B617A69384B13407B617B685A68C1
:100E98007B689B681A437B68DB681A437B681B691D
:100EA8001A437B685B691A437B689B691A437B68B2
:100EB800DB691A437B681B6A13437A6913437B61B6
:100EC8007B685B6A042B07D17B68DA6A7B681B6BDB
:100ED80013437A6913437B617B681B687A691A60DC
:100EE8007B681B685B697B617B6923F007037B6117
:100EF8007B685B6A7A6913437B617B685B6A042B56
:100F080017D17B689B6A7A6913437B617B68DB6ACC
:100F1800002B0ED0786800F097FA0346002B08D013
:100F28007B6840225A657B68012283F835200123BB
:100F380016E07B681B687A695A61786800F050FA95
:100F48000346FB607B68DB6D3F229A40FB689A6032
:100F58007B6800225A657B68012283F835200023CC
:100F680018461837BD4680BD3F8010F080B586B062
:100F780000AFF860B9607A603B600023FB75FB68DE
:100F88009B6D3B61FB6893F83430012B01D1022340
:100F980048E0FB68012283F83420FB6893F8353079
:100FA800DBB2012B37D1FB68022283F83520FB68BE
:100FB80000225A653B687A68B968F86800F0E2F977
:100FC800FB68DB6D3F229A403B699A60FB681B68AF
:100FD8001A68FB681B6842F016021A60FB681B68F7
:100FE8005A69FB681B6842F080025A61FB681B6CF7
:100FF800002B07D0FB681B681A68FB681B6842F067
:1010080008021A60FB681B681A68FB681B6842F0D4
:1010180001021A6005E0FB68002283F834200223ED
:10102800FB75FB7D18461837BD4680BD80B483B07C
:1010380000AF78607B6893F83530DBB2022B04D0C0
:101048007B6880225A6501230CE07B68052283F8BF
:1010580035207B681B681A687B681B6822F00102D0
:101068001A60002318460C37BD4680BC7047000044
:1010780080B586B000AF78600023BB60924B1B68D8
:10108800924AA2FB03239B0A7B617B689B6D3B61B1
:101098003B691B68FB607B68DB6D08229A40FB6834
:1010A8001340002B1AD07B681B681B6803F00403ED
:1010B800002B13D07B681B681A687B681B6822F0BA
:1010C80004021A607B68DB6D08229A403B699A60CB
:1010D8007B685B6D43F001027B685A657B68DB6D5A
:1010E80001229A40FB681340002B12D07B681B68D2
:1010F8005B6903F08003002B0BD07B68DB6D01225A
:101108009A403B699A607B685B6D43F002027B689A
:101118005A657B68DB6D04229A40FB681340002BFC
:1011280012D07B681B681B6803F00203002B0BD0EE
:101138007B68DB6D04229A403B699A607B685B6D33
:1011480043F004027B685A657B68DB6D10229A4085
:10115800FB681340002B43D07B681B681B6803F0B7
:101168000803002B3CD07B68DB6D10229A403B695A
:101178009A607B681B681B6803F48023002B18D0D7
:101188007B681B681B6803F40023002B08D17B686D
:101198001B6C002B24D07B681B6C786898471FE079
:1011A8007B689B6C002B1BD07B689B6C786898478E
:1011B80016E07B681B681B6803F48073002B07D15B
:1011C8007B681B681A687B681B6822F008021A6033
:1011D8007B681B6C002B03D07B681B6C7868984776
:1011E8007B68DB6D20229A40FB681340002B00F0DF
:1011F8008E807B681B681B6803F01003002B00F0CF
:1012080086807B68DB6D20229A403B699A607B6808
:1012180093F83530DBB2052B36D17B681B681A682A
:101228007B681B6822F016021A607B681B685A6983
:101238007B681B6822F080025A617B681B6C002B5C
:1012480003D17B689B6C002B07D07B681B681A68EE
:101258007B681B6822F008021A607B68DB6D3F22FE
:101268009A403B699A607B68002283F834207B6847
:10127800012283F835207B681B6D002B7DD07B68AD
:101288001B6D7868984778E07B681B681B6803F4D7
:101298008023002B1CD07B681B681B6803F4002389
:1012A800002B08D17B685B6C002B30D07B685B6CB3
:1012B800786898472BE07B68DB6B002B27D07B682E
:1012C800DB6B7868984722E000000020B5814E1B50
:1012D8007B681B681B6803F48073002B0FD17B6845
:1012E8001B681A687B681B6822F010021A607B680A
:1012F800002283F834207B68012283F835207B683C
:10130800DB6B002B03D07B68DB6B786898477B68C6
:101318005B6D002B32D07B685B6D03F00103002B03
:1013280022D07B68052283F835207B681B681A6801
:101338007B681B6822F001021A60BB680133BB603E
:101348007A699A4207D37B681B681B6803F001031C
:10135800002BF2D100E000BF7B68002283F8342024
:101368007B68012283F835207B68DB6C002B05D075
:101378007B68DB6C7868984700E000BF1837BD468B
:1013880080BD00BF80B485B000AFF860B9607A60F6
:101398003B60FB681B681A68FB681B6822F48022A4
:1013A8001A60FB681B683A685A60FB689B68402BA8
:1013B80008D1FB681B687A689A60FB681B68BA6882
:1013C800DA6007E0FB681B68BA689A60FB681B680C
:1013D8007A68DA6000BF1437BD4680BC70470000E9
:1013E80080B485B000AF78607B681B68DBB2103BC7
:1013F800134AA2FB03231B09FB60124AFB68134430
:101408001B781A467B68DA65FB68032B09D97B6869
:101418001B6823F47F7323F003031A1D7B689A6506
:1014280007E07B681B6823F47F7323F003037A6863
:1014380093657B689B6D18461437BD4680BC704722
:10144800ABAAAAAAE452000880B485B000AF7860BD
:101458000023FB737B689B6ABB607B689B69002BDE
:101468001FD1BB68032B55D801A252F823F000BF47
:10147800891400089B140008891400081D15000829
:101488007B68DB6A03F08073002B45D00123FB7374
:1014980042E07B68DB6AB3F1C07F3FD10123FB7375
:1014A8003CE07B689B69B3F5005F21D1BB68032BE7
:1014B80036D801A252F823F0D1140008D714000836
:1014C800D1140008E91400080123FB732FE07B689E
:1014D800DB6A03F08073002B24D00123FB7321E027
:1014E8007B68DB6AB3F1C07F1ED10123FB731BE06D
:1014F800BB68022B02D9032B03D018E00123FB732E
:1015080015E07B68DB6A03F08073002B0ED00123A3
:10151800FB730BE000BF0AE000BF08E000BF06E075
:1015280000BF04E000BF02E000BF00E000BFFB7B9B
:1015380018461437BD4680BC704700BF80B489B0D8
:1015480000AF7860396000237B6100233B61002392
:10155800BB610023FB616BE10122FB6902FA03F323
:101568007B613B681B687A6913403B613A697B6918
:101578009A4240F05A813B685B68022B03D03B6873
:101588005B68122B23D1FB69DA087B68083253F8B1
:101598002230BB61FB6903F007039B000F2202FAAC
:1015A80003F3DB43BA691340BB613B681A69FB6903
:1015B80003F007039B0002FA03F3BA691343BB6104
:1015C800FB69DA087B680832B96943F822107B683E
:1015D8001B68BB61FB695B00032202FA03F3DB4370
:1015E800BA691340BB613B685B6803F00302FB699F
:1015F8005B0002FA03F3BA691343BB617B68BA69FB
:101608001A603B685B68012B0BD03B685B68022B58
:1016180007D03B685B68112B03D03B685B68122BD3
:1016280030D17B689B68BB61FB695B00032202FACF
:1016380003F3DB43BA691340BB613B68DA68FB69B3
:101648005B0002FA03F3BA691343BB617B68BA69AA
:101658009A607B685B68BB610122FB6902FA03F34D
:10166800DB43BA691340BB613B685B681B0903F045
:101678000102FB6902FA03F3BA691343BB617B6891
:10168800BA695A607B68DB68BB61FB695B0003224F
:1016980002FA03F3DB43BA691340BB613B689A68FB
:1016A800FB695B0002FA03F3BA691343BB617B6809
:1016B800BA69DA603B685B6803F08053002B00F07E
:1016C800B4800023FB605F4B5B6C5E4A43F480434D
:1016D80053645C4B5B6C03F48043FB60FB685A4AC1
:1016E800FB699B08023352F82330BB61FB6903F0A6
:1016F80003039B000F2202FA03F3DB43BA6913408A
:10170800BB617B68514A93422BD07B68504A934215
:1017180025D07B684F4A93421FD07B684E4A93423C
:1017280019D07B684D4A934213D07B684C4A934248
:101738000DD07B684B4A934207D07B684A4A934254
:1017480001D107230EE008230CE006230AE0052355
:1017580008E0042306E0032304E0022302E0012357
:1017680000E00023FA6902F0030292009340BA698C
:101778001343BB613449FB699B080233BA6941F8DA
:1017880023203A4B1B68BB613B69DB43BA691340B2
:10179800BB613B685B6803F48033002B03D0BA69F4
:1017A8003B691343BB61314ABB6913602F4B5B68CC
:1017B800BB613B69DB43BA691340BB613B685B684B
:1017C80003F40033002B03D0BA693B691343BB61B0
:1017D800264ABB695360254B9B68BB613B69DB4369
:1017E800BA691340BB613B685B6803F48013002B44
:1017F80003D0BA693B691343BB611C4ABB69936058
:101808001A4BDB68BB613B69DB43BA691340BB61B8
:101818003B685B6803F40013002B03D0BA693B698B
:101828001343BB61114ABB69D360FB690133FB6198
:10183800FB690F2B7FF690AE00BF2437BD4680BCF6
:10184800704700BF003802400038014000000240E5
:101858000004024000080240000C02400010024050
:101868000014024000180240001C0240003C0140E5
:1018780080B483B000AF78600B467B8013467B70E2
:101888007B78002B03D07A887B689A6103E07B8899
:101898001A047B689A6100BF0C37BD4680BC70474C
:1018A80080B586B000AF78607B68002B01D101233A
:1018B8002DE27B681B6803F00103002B75D0A34B56
:1018C8009B6803F00C03042B0CD0A04B9B6803F01F
:1018D8000C03082B12D19D4B5B6803F48003B3F50E
:1018E800800F0BD1994B1B6803F40033002B5BD09E
:1018F8007B685B68002B57D1012308E27B685B6833
:10190800B3F5803F06D1914B1B68904A43F480336E
:1019180013601DE07B685B68B3F5A02F0CD18B4B7F
:101928001B688A4A43F480231360884B1B68874AE4
:1019380043F4803313600BE0844B1B68834A23F421
:1019480080331360814B1B68804A23F48023136023
:101958007B685B68002B13D0FFF720F9386108E03B
:10196800FFF71CF902463B69D31A642B01D90323FC
:10197800CDE1764B1B6803F40033002BF0D014E064
:10198800FFF70CF9386108E0FFF708F902463B69F0
:10199800D31A642B01D90323B9E16C4B1B6803F4F8
:1019A8000033002BF0D100E000BF7B681B6803F018
:1019B8000203002B63D0654B9B6803F00C03002BDC
:1019C8000BD0624B9B6803F00C03082B1CD15F4BB8
:1019D8005B6803F48003002B16D15C4B1B6803F093
:1019E8000203002B05D07B68DB68012B01D00123A3
:1019F8008DE1564B1B6823F0F8027B681B69DB00FE
:101A0800524913430B603AE07B68DB68002B20D017
:101A18004F4B01221A60FFF7C1F8386108E0FFF761
:101A2800BDF802463B69D31A022B01D903236EE1A4
:101A3800464B1B6803F00203002BF0D0434B1B6896
:101A480023F0F8027B681B69DB00404913430B60F5
:101A580015E03F4B00221A60FFF7A0F8386108E054
:101A6800FFF79CF802463B69D31A022B01D90323DE
:101A78004DE1364B1B6803F00203002BF0D17B6865
:101A88001B6803F00803002B30D07B685B69002BD0
:101A980016D0304B01221A60FFF780F8386108E051
:101AA800FFF77CF802463B69D31A022B01D90323BE
:101AB8002DE1264B5B6F03F00203002BF0D015E0FD
:101AC800244B00221A60FFF769F8386108E0FFF735
:101AD80065F802463B69D31A022B01D9032316E1A4
:101AE8001A4B5B6F03F00203002BF0D17B681B6875
:101AF80003F00403002B00F0A0800023FB75134BB8
:101B08001B6C03F08053002B0FD10023FB600F4B9D
:101B18001B6C0E4A43F0805313640C4B1B6C03F090
:101B28008053FB60FB680123FB750B4B1B6803F4B8
:101B38008073002B21D1084B1B68074A43F480733C
:101B48001360FFF72BF8386111E000BF003802403E
:101B580000004742800E474200700040FFF71EF821
:101B680002463B69D31A022B01D90323CFE06A4B03
:101B78001B6803F48073002BF0D07B689B68012BF3
:101B880006D1664B1B6F654A43F0010313671CE0DF
:101B98007B689B68052B0CD1604B1B6F5F4A43F039
:101BA800040313675D4B1B6F5C4A43F00103136723
:101BB8000BE05A4B1B6F594A23F001031367574B2D
:101BC8001B6F564A23F0040313677B689B68002B3E
:101BD80015D0FEF7E3FF38610AE0FEF7DFFF0246A3
:101BE8003B69D31A41F28832934201D903238EE02C
:101BF8004A4B1B6F03F00203002BEED014E0FEF7F4
:101C0800CDFF38610AE0FEF7C9FF02463B69D31AE7
:101C180041F28832934201D9032378E03F4B1B6F8E
:101C280003F00203002BEED1FB7D012B05D13B4BCA
:101C38001B6C3A4A23F0805313647B689B69002B22
:101C480064D0364B9B6803F00C03082B5CD07B6890
:101C58009B69022B41D1324B00221A60FEF79EFF8E
:101C6800386108E0FEF79AFF02463B69D31A022B57
:101C780001D903234BE0294B1B6803F00073002BA9
:101C8800F0D17B68DA697B681B6A1A437B685B6AF8
:101C98009B011A437B689B6A5B08013B1B041A4340
:101CA8007B68DB6A1B061D4913434B601C4B0122F2
:101CB8001A60FEF773FF386108E0FEF76FFF02460F
:101CC8003B69D31A022B01D9032320E0134B1B686D
:101CD80003F00073002BF0D018E0114B00221A60BB
:101CE800FEF75CFF386108E0FEF758FF02463B69E3
:101CF800D31A022B01D9032309E0084B1B6803F010
:101D08000073002BF0D101E0012300E00023184606
:101D18001837BD4680BD00BF007000400038024043
:101D28006000474280B584B000AF786039607B6856
:101D3800002B01D10123CAE0674B1B6803F00F0396
:101D48003A689A420CD9644B3A68D2B21A70624B1C
:101D58001B6803F00F033A689A4201D00123B6E0EA
:101D68007B681B6803F00203002B20D07B681B688C
:101D780003F00403002B05D0584B9B68574A43F4E3
:101D8800E05393607B681B6803F00803002B05D0C1
:101D9800524B9B68514A43F4604393604F4B9B6896
:101DA80023F0F0027B689B684C4913438B607B6887
:101DB8001B6803F00103002B44D07B685B68012B90
:101DC80007D1464B1B6803F40033002B19D10123BC
:101DD8007DE07B685B68022B03D07B685B68032B24
:101DE80007D13E4B1B6803F00073002B09D1012378
:101DF8006DE03A4B1B6803F00203002B01D101236D
:101E080065E0364B9B6823F003027B685B683349C7
:101E180013438B60FEF7C2FEF8600AE0FEF7BEFED1
:101E28000246FB68D31A41F28832934201D9032350
:101E38004DE02A4B9B6803F00C027B685B689B00B3
:101E48009A42EBD1244B1B6803F00F033A689A427D
:101E58000CD2214B3A68D2B21A701F4B1B6803F0A0
:101E68000F033A689A4201D0012330E07B681B686F
:101E780003F00403002B08D0184B9B6823F4E052AE
:101E88007B68DB68154913438B607B681B6803F02C
:101E98000803002B09D0114B9B6823F460427B6830
:101EA8001B69DB000D4913438B6000F01DF80146E8
:101EB8000A4B9B681B0903F00F03094AD35C21FAFC
:101EC80003F3084A13600020FEF726FE0023184695
:101ED8001037BD4680BD00BF003C024000380240BC
:101EE800CC52000800000020F0B585B000AF0023F8
:101EF8007B600023FB6000233B600023BB60504BEA
:101F08009B6803F00C03042B07D0082B08D0002B88
:101F180040F08D804B4BBB608CE04B4BBB6089E045
:101F2800474B5B6803F03F037B60454B5B6803F4FA
:101F38008003002B23D0424B5B689B094FF00004C1
:101F480040F2FF114FF0000203EA010504EA02061D
:101F58003D4A02FB06F1002202FB05F20A443A4917
:101F6800A5FB0101531819467B684FF000041A4677
:101F78002346FEF705F903460C46FB6049E0304B63
:101F88005B689B094FF0000440F2FF114FF000021C
:101F980003EA010504EA0206294632464FF0000327
:101FA8004FF00004540144EAD1644B01194622461B
:101FB800491B62EB06024FF000034FF00004940146
:101FC80044EA91648B015B1A64EB02044FF0000150
:101FD8004FF00002E20042EA5372D9000B46144661
:101FE8005B1944EB06044FF000014FF00002A20217
:101FF80042EA935299020B461446184621467B68DA
:102008004FF000041A462346FEF7BAF803460C467A
:10201800FB600B4B5B681B0C03F0030301335B0095
:102028003B60FA683B68B2FBF3F3BB6002E0054B28
:10203800BB6000BFBB6818461437BD46F0BD00BF83
:10204800003802400024F40040787D0180B400AFDD
:10205800024B1B681846BD4680BC70470000002034
:1020680080B500AFFFF7F2FF0146054B9B689B0A5E
:1020780003F00703034AD35C21FA03F3184680BD33
:1020880000380240DC52000880B500AFFFF7DEFFE1
:102098000146054B9B685B0B03F00703034AD35CBF
:1020A80021FA03F3184680BD00380240DC520008CC
:1020B80080B582B000AF78607B68002B01D1012326
:1020C80056E07B6800229A627B6893F85130DBB255
:1020D800002B06D17B68002283F850207868FEF731
:1020E80037FB7B68022283F851207B681B681A68DB
:1020F8007B681B6822F040021A607B685A687B681C
:102108009B681A437B68DB681A437B681B691A4320
:102118007B685B691A437B689B6903F400731A4305
:102128007B68DB691A437B681B6A42EA03017B68A8
:102138009A6A7B681B680A431A607B689B691B0C58
:1021480003F004017B685A6A7B681B680A435A607B
:102158007B681B68DA697B681B6822F40062DA61B5
:102168007B6800225A657B68012283F8512000238E
:1021780018460837BD4680BD80B586B000AFF86008
:10218800B9601346FB800023FB75FB6893F8503059
:10219800012B01D1022393E0FB68012283F8502030
:1021A800FB6893F85130DBB2012B02D00223FB7598
:1021B80081E0BB68002B02D0FB88002B02D10123F1
:1021C800FB7578E0FB68032283F85120FB68002246
:1021D8005A65FB68BA681A63FB68FA889A86FB68CE
:1021E800FA88DA86FB6800229A63FB6800225A6440
:1021F800FB6800221A64FB6800229A87FB680022A9
:10220800DA87FB689B68B3F5004F07D1FB681B684A
:102218001A68FB681B6842F480421A60FB689B6C72
:10222800294A1A64FB689B6C284ADA63FB689B6C32
:10223800274ADA64FB689B6C00221A65FB68986C75
:10224800FB681B6B1946FB681B680C331A46FB6856
:10225800DB8E9BB2FEF78AFE0346002B0CD0FB6890
:102268005B6D43F01002FB685A650123FB75FB6840
:10227800012283F851201EE0FB681B681B6803F0ED
:102288004003402B07D0FB681B681A68FB681B6873
:1022980042F040021A60FB681B685A68FB681B68BA
:1022A80042F020025A60FB681B685A68FB681B688A
:1022B80042F002025A60FB68002283F85020FB7D3E
:1022C80018461837BD4680BDD52500082D250008BD
:1022D800F125000880B588B000AF78607B681B687E
:1022E8005B68FB617B681B689B68BB61BB699B097A
:1022F80003F00103002B0FD1BB6903F00103002B8E
:102308000AD0FB699B0903F00103002B04D07B680A
:102318001B6C78689847D8E0BB695B0803F0010339
:10232800002B0AD0FB69DB0903F00103002B04D062
:102338007B685B6C78689847C7E0BB695B0903F00A
:102348000103002B0CD1BB699B0903F00103002B8F
:1023580006D1BB691B0A03F00103002B00F0B5800E
:10236800FB695B0903F00103002B00F0AE80BB6939
:102378009B0903F00103002B23D07B6893F85130AD
:10238800DBB2032B11D07B685B6D43F004027B68E2
:102398005A6500237B617B681B68DB687B617B680F
:1023A8001B689B687B617B690BE000233B617B6852
:1023B8001B68DB683B617B681B689B683B613B690A
:1023C80083E0BB695B0903F00103002B14D07B6831
:1023D8005B6D43F001027B685A650023FB607B68F4
:1023E8001B689B68FB607B681B681A687B681B68B6
:1023F80022F040021A60FB68BB691B0A03F0010364
:10240800002B0CD07B685B6D43F008027B685A6533
:102418000023BB607B681B689B68BB60BB687B68EC
:102428005B6D002B50D07B681B685A687B681B6803
:1024380022F0E0025A607B68012283F85120FB6990
:1024480003F00203002B04D1FB6903F00103002B06
:1024580034D07B681B685A687B681B6822F00302CB
:102468005A607B68DB6C002B11D07B68DB6C184AE8
:102478001A657B68DB6C1846FEF7D8FD0346002B0F
:1024880005D07B685B6D43F040027B685A657B68CA
:102498009B6C002B16D07B689B6C0D4A1A657B6879
:1024A8009B6C1846FEF7C2FD0346002B0AD07B68DA
:1024B8005B6D43F040027B685A6503E0786800F082
:1024C8001BF800E000BF00BF00BF2037BD4680BD3D
:1024D8003126000880B483B000AF786000BF0C37A5
:1024E800BD4680BC704780B483B000AF786000BF41
:1024F8000C37BD4680BC704780B483B000AF7860AD
:1025080000BF0C37BD4680BC704780B483B000AFB5
:1025180078607B6893F85130DBB218460C37BD46BB
:1025280080BC704780B586B000AF78607B689B6BD5
:102538007B61FEF733FB38617B681B681B6803F41B
:102548008073B3F5807F3BD07B691B685A687B69D1
:102558001B6822F020025A607B691B685A687B69F5
:102568001B6822F002025A603A696421786900F017
:10257800D9F80346002B05D07B695B6D43F0200238
:102588007B695A657B699B68002B0AD10023FB6035
:102598007B691B68DB68FB607B691B689B68FB6069
:1025A800FB687B690022DA867B69012283F8512067
:1025B8007B695B6D002B03D07869FFF79DFF02E014
:1025C8007869FFF787FF1837BD4680BD80B584B0AE
:1025D80000AF78607B689B6BFB60F868FFF783FF50
:1025E80000BF1037BD4680BD80B584B000AF7860AD
:1025F8007B689B6BFB60FB681B685A68FB681B6801
:1026080022F003025A60FB685B6D43F01002FB681E
:102618005A65FB68012283F85120F868FFF76CFFC0
:1026280000BF1037BD4680BD80B584B000AF78606C
:102638007B689B6BFB60FB680022DA87FB680022E3
:10264800DA86F868FFF758FF00BF1037BD4680BD2F
:1026580080B584B000AFF860B9603B601346FB7189
:102668004CE03B68B3F1FF3F48D0FEF797FA0246CB
:10267800BB69D31A3A689A4202D93B68002B3DD10C
:10268800FB681B685A68FB681B6822F0E0025A6006
:10269800FB685B68B3F5827F11D1FB689B68B3F573
:1026A800004F04D0FB689B68B3F5806F07D1FB68C7
:1026B8001B681A68FB681B6822F040021A60FB68F6
:1026C8009B6AB3F5005F0FD1FB681B681A68FB684B
:1026D8001B6822F400521A60FB681B681A68FB68C2
:1026E8001B6842F400521A60FB68012283F85120EB
:1026F800FB68002283F8502003230FE0FB681B6867
:102708009A68BB681340BA689A420CBF0123002339
:10271800DBB21A46FB799A42A3D100231846103738
:10272800BD4680BD80B586B002AFF860B9607A60FA
:102738007B680093BB6800228021F868FFF788FF58
:102748000346002B07D0FB685B6D43F02002FB6853
:102758005A65032300E0002318461037BD4680BDA4
:1027680080B582B000AF78607B68002B01D101236F
:102778003FE07B6893F83930DBB2002B06D17B68E9
:10278800002283F838207868FEF764F87B682422F2
:1027980083F839207B681B68DA687B681B6822F439
:1027A8000052DA60786800F041FB7B681B681A69A0
:1027B8007B681B6822F490421A617B681B685A691F
:1027C8007B681B6822F02A025A617B681B68DA68FA
:1027D8007B681B6842F40052DA607B680022DA6387
:1027E8007B68202283F839207B68202283F83A20EE
:1027F800002318460837BD4680BD80B588B002AFB3
:10280800F860B9603B601346FB8000237B61FB687E
:1028180093F83930DBB2202B40F08380BB68002B63
:1028280002D0FB88002B01D101237BE0FB6893F8E1
:102838003830012B01D1022374E0FB68012283F8B0
:102848003820FB680022DA63FB68212283F83920EC
:10285800FEF7A4F97861FB68FA889A84FB68FA881D
:10286800DA8442E0FB68DB8C9BB2013B9AB2FB68DE
:10287800DA84FB689B68B3F5805F22D13B680093DC
:102888007B6900228021F86800F067F90346002B75
:1028980001D0032346E0BB683B613B691B881A46AD
:1028A800FB681B68C2F308025A60FB681B69002BAF
:1028B80003D1BB680233BB6017E0BB680133BB6060
:1028C80013E03B6800937B6900228021F86800F0E0
:1028D80044F90346002B01D0032323E0BB685A1CAC
:1028E800BA601A78FB681B685A60FB68DB8C9BB27D
:1028F800002BB7D13B6800937B6900224021F86820
:1029080000F02BF90346002B01D003230AE0FB68F3
:10291800202283F83920FB68002283F8382000231E
:1029280000E0022318461837BD4680BD80B588B040
:1029380000AF78607B681B681B68FB617B681B685D
:10294800DB68BB617B681B685B697B6100233B615B
:102958000023FB60FB6903F00F033B613B69002B1D
:102968000DD1FB6903F02003002B08D0BB6903F0ED
:102978002003002B03D0786800F0D7F9CCE03B693E
:10298800002B00F0AB807B6903F00103002B05D11D
:10299800BB6903F49073002B00F0A080FB6903F07F
:1029A8000103002B0AD0BB6903F48073002B05D008
:1029B8007B68DB6B43F001027B68DA63FB6903F039
:1029C8000403002B0AD07B6903F00103002B05D018
:1029D8007B68DB6B43F002027B68DA63FB6903F018
:1029E8000203002B0AD07B6903F00103002B05D0FA
:1029F8007B68DB6B43F004027B68DA63FB6903F0F6
:102A08000803002B0AD07B6903F00103002B05D0D3
:102A18007B68DB6B43F008027B68DA637B68DB6BFF
:102A2800002B78D0FB6903F02003002B07D0BB698B
:102A380003F02003002B02D0786800F076F97B6859
:102A48001B685B6903F04003402B0CBF0123002384
:102A5800DBB2FB607B68DB6B03F00803002B02D161
:102A6800FB68002B31D0786800F0C1F87B681B68E0
:102A78005B6903F04003402B23D17B681B685A69CC
:102A88007B681B6822F040025A617B685B6B002BF5
:102A980013D07B685B6B224A1A657B685B6B1846B0
:102AA800FEF7C4FA0346002B16D07B685B6B1B6DE0
:102AB8007A68526B104698470EE0786800F044F840
:102AC8000AE0786800F040F806E0786800F03CF822
:102AD8007B680022DA631EE000BF1CE0FB6903F09C
:102AE8008003002B08D0BB6903F08003002B03D0C0
:102AF800786800F0ADF80FE0FB6903F04003002BA5
:102B08000AD0BB6903F04003002B05D0786800F0B9
:102B1800F4F800BF00E000BF2037BD4680BD00BF0D
:102B2800312C000880B483B000AF786000BF0C3748
:102B3800BD4680BC704780B483B000AF786000BFEA
:102B48000C37BD4680BC704780B483B000AF786056
:102B580000BF0C37BD4680BC704780B584B000AF5D
:102B6800F860B9603B601346FB712CE0BB69B3F1B8
:102B7800FF3F28D0BB69002B07D0FEF70FF80246AD
:102B88003B68D31ABA699A421DD2FB681B68DA6897
:102B9800FB681B6822F4D072DA60FB681B685A690C
:102BA800FB681B6822F001025A61FB68202283F847
:102BB8003920FB68202283F83A20FB68002283F83A
:102BC800382003230FE0FB681B681A68BB681340B2
:102BD800BA689A420CBF01230023DBB21A46FB797C
:102BE8009A42C3D0002318461037BD4680BD80B432
:102BF80083B000AF78607B681B68DA687B681B6805
:102C080022F49072DA607B681B685A697B681B68DB
:102C180022F001025A617B68202283F83A2000BF23
:102C28000C37BD4680BC704780B584B000AF786073
:102C38007B689B6BFB60FB680022DA85FB680022DF
:102C4800DA84F868FFF780FF00BF1037BD4680BD03
:102C580080B485B000AF78607B6893F83930DBB218
:102C6800212B44D17B689B68B3F5805F1AD17B68C0
:102C78001B6AFB60FB681B881A467B681B68C2F3EB
:102C880008025A607B681B69002B05D17B681B6AA8
:102C98009A1C7B681A620EE07B681B6A5A1C7B6868
:102CA8001A6208E07B681B6A591C7A6811621A78F4
:102CB8007B681B685A607B68DB8C9BB2013B9BB2CC
:102CC8007A681946D184002B0FD17B681B68DA68B3
:102CD8007B681B6822F08002DA607B681B68DA6810
:102CE8007B681B6842F04002DA60002300E00223A0
:102CF80018461437BD4680BC704780B582B000AF17
:102D080078607B681B68DA687B681B6822F0400281
:102D1800DA607B68202283F839207868FFF702FFA1
:102D2800002318460837BD4680BD80B584B000AF83
:102D380078607B6893F83A30DBB2222B71D17B68DC
:102D48009B68B3F5805F23D17B689B6AFB607B68D7
:102D58001B69002B0ED17B681B685B689BB2C3F3B1
:102D680008039AB2FB681A807B689B6A9A1C7B6886
:102D78009A6229E07B681B685B689BB2DBB29AB2F7
:102D8800FB681A807B689B6A5A1C7B689A621BE006
:102D98007B681B69002B0AD17B681B6858687B68B5
:102DA8009B6A591C7A689162C2B21A700CE07B68FF
:102DB8001B685B68DAB27B689B6A581C7968886212
:102DC80002F07F02D2B21A707B68DB8D9BB2013BA6
:102DD8009BB27A681946D185002B20D17B681B6885
:102DE800DA687B681B6822F02002DA607B681B685F
:102DF800DA687B681B6822F48072DA607B681B687B
:102E08005A697B681B6822F001025A617B6820229C
:102E180083F83A207868FFF78EFE002302E000234B
:102E280000E0022318461037BD4680BDB0B584B017
:102E380000AF78607B681B681B6923F440517B688E
:102E4800DA687B681B680A431A617B689A687B6842
:102E58001B691A437B685B691A437B68DB69134308
:102E6800FB607B681B68DB6823F4164323F00C03C4
:102E78007A681268F9680B43D3607B681B685B69E2
:102E880023F440717B689A697B681B680A435A611E
:102E98007B68DB69B3F5004F40F0E4807B681B6812
:102EA800AB4A934204D07B681B68AA4A93426CD110
:102EB800FFF7EAF8024613469B0013449A001A44A7
:102EC8007B685B685B00B2FBF3F3A34AA2FB0323B6
:102ED8005B091C01FFF7D8F8024613469B00134410
:102EE8009A001A447B685B685B00B2FBF3F5FFF756
:102EF800CBF8024613469B0013449A001A447B6899
:102F08005B685B00B2FBF3F3934AA2FB03235B0904
:102F1800642202FB03F3EB1ADB0032338E4AA2FB76
:102F280003235B095B0003F4F8731C44FFF7ACF858
:102F3800024613469B0013449A001A447B685B6858
:102F48005B00B2FBF3F5FFF79FF8024613469B00C0
:102F580013449A001A447B685B685B00B2FBF3F386
:102F68007D4AA2FB03235B09642202FB03F3EB1AED
:102F7800DB003233784AA2FB03235B0903F0070224
:102F88007B681B6822449A6054E1FFF769F802469F
:102F980013469B0013449A001A447B685B685B00E5
:102FA800B2FBF3F36C4AA2FB03235B091C01FFF796
:102FB80057F8024613469B0013449A001A447B684C
:102FC8005B685B00B2FBF3F5FFF74AF8024613466D
:102FD8009B0013449A001A447B685B685B00B2FB51
:102FE800F3F35D4AA2FB03235B09642202FB03F3AC
:102FF800EB1ADB003233584AA2FB03235B095B0060
:1030080003F4F8731C44FFF72BF8024613469B00A1
:1030180013449A001A447B685B685B00B2FBF3F5C3
:10302800FFF71EF8024613469B0013449A001A4401
:103038007B685B685B00B2FBF3F3474AA2FB0323A0
:103048005B09642202FB03F3EB1ADB003233424ACA
:10305800A2FB03235B0903F007027B681B68224479
:103068009A60E7E07B681B68394A934204D07B6822
:103078001B68384A934271D1FFF706F80246134697
:103088009B0013449A001A447B685B689B00B2FB60
:10309800F3F3314AA2FB03235B091C01FEF7F4FF9B
:1030A800024613469B0013449A001A447B685B68E7
:1030B8009B00B2FBF3F5FEF7E7FF024613469B00C1
:1030C80013449A001A447B685B689B00B2FBF3F3D5
:1030D800214AA2FB03235B09642202FB03F3EB1AD8
:1030E8001B0132331C4AA2FB03235B0903F0F003E4
:1030F8001C44FEF7C9FF024613469B0013449A007E
:103108001A447B685B689B00B2FBF3F5FEF7BCFFD3
:10311800024613469B0013449A001A447B685B6876
:103128009B00B2FBF3F30C4AA2FB03235B09642266
:1031380002FB03F3EB1A1B013233074AA2FB0323FA
:103148005B0903F00F027B681B6822449A6071E0F8
:1031580000100140001401401F85EB51FEF780FF6D
:10316800024613469B0013449A001A447B685B6826
:103178009B00B2FBF3F3314AA2FB03235B091C015A
:10318800FEF76EFF024613469B0013449A001A444A
:103198007B685B689B00B2FBF3F5FEF761FF0246B4
:1031A80013469B0013449A001A447B685B689B0093
:1031B800B2FBF3F3214AA2FB03235B09642202FB5F
:1031C80003F3EB1A1B0132331C4AA2FB03235B09EE
:1031D80003F0F0031C44FEF743FF024613469B002E
:1031E80013449A001A447B685B689B00B2FBF3F5B2
:1031F800FEF736FF024613469B0013449A001A4412
:103208007B685B689B00B2FBF3F30C4AA2FB0323C9
:103218005B09642202FB03F3EB1A1B013233074AF2
:10322800A2FB03235B0903F00F027B681B6822449F
:103238009A60FFE700BF1037BD46B0BD1F85EB5150
:1032480080B582B000AF78600B46FB70FB789AB20D
:103258007B685A81FB789BB21A46520013449B0044
:103268009BB201339AB27B689A817B680E4A1A60D6
:103278007B680E4A5A607B6800221A727B681A685B
:103288007B689B89013B1344FE221A707B680122EC
:103298009A73786800F00CF8786800F087F800BF37
:1032A8000837BD4680BD00BF0C000020F00100209B
:1032B80080B582B000AF78607B6818687B689B89AE
:1032C800013B1A46882100F03DFB7B6801229A7376
:1032D80000BF0837BD4680BD80B489B000AFF86034
:1032E8000B467A60FB72FB681968FA7A13465B0032
:1032F80013449B0003330B44BB610023BB7737E0C7
:103308000023FB772BE07B68DBB203F00303FB753C
:10331800FB7D032B1AD801A252F823F0353300089D
:103328003D330008453300084D330008BB69882247
:103338001A700BE0BB698E221A7007E0BB69E8229D
:103348001A7003E0BB69EE221A7000BF7B689B0805
:103358007B60BB69013BBB61FB7F0133FB77FB7F74
:10336800032BD0D9BB690733BB61BB7F0133BB7764
:10337800BB7F022BC4D900BF2437BD4680BC704731
:1033880080B483B000AF0346FB710B46BB71134694
:103398007B71BB791A04FB791B021A437B791343AF
:1033A80018460C37BD4680BC7047000080B582B017
:1033B80000AF78601348FFF7A8F80346012B1DD12A
:1033C8007B689B7BDBB2012B0BD17B6858687B68E1
:1033D80019687B689B891A46FCF7ECFE7B6800221B
:1033E8009A737B6859687B689B891A460548FEF77B
:1033F800C3FE0346002B01D0FDF77EF900BF083756
:10340800BD4680BDA80C002080B582B000AF034641
:10341800FB71FB79DB43FB71FB79542B11D8FB79EA
:103428001A469B00D31ADBB2013BD8B2FB791A4685
:1034380052001344DBB21A460021FFF7A1FF0346EE
:103448002BE0FB79A92B14D8FB79553BFB71FB7951
:103458001A4652001344D9B2FB791A469B00D31A74
:10346800DBB2013BDBB21A460020FFF789FF0346B7
:1034780013E0FB795633FB71FB791A46520013446B
:10348800D8B2FB791A469B00D31ADBB2013BDBB2F8
:1034980000221946FFF774FF034618460837BD4651
:1034A80080BD90B585B000AF78600B467B80002367
:1034B800BB8128E00023FB8113E0FB89DCB2FB8998
:1034C800DAB2BB89DBB21344DBB21846FFF79CFFC4
:1034D80003461A4621467868FFF7FEFEFB8901334A
:1034E800FB817B685B89FA899A42E6D37B68012273
:1034F8009A737868FFF75AFF7B881846FDF758FBE0
:10350800BB890133BB81BB89FF2BD3D900BF1437DB
:10351800BD4690BD80B588B000AFF860B96013466D
:10352800FB800023FB614AE00023BB6141E00023EC
:10353800FB820DE0FB8ADAB2BB69DBB21344DBB273
:10354800BA681946F868FFF7C7FEFB8A0333FB829F
:10355800FB685B89FA8A9A42ECD3FB6801229A736A
:10356800F868FFF723FFFB881846FDF721FB0023C7
:10357800BB820DE0BB8ADAB2BB69DBB21344DBB2B3
:1035880000221946F868FFF7A7FEBB8A0333BB82FF
:10359800FB685B89BA8A9A42ECD3FB6801229A736A
:1035A800F868FFF703FF0220FDF702FBBB69013350
:1035B800BB61BB69022BBADDFB690133FB61FB69A7
:1035C800092BB1DD00BF2037BD4680BD80B586B070
:1035D80000AFF860B9601346FB800023FB8200232C
:1035E800FB8213E0FB8ADBB2BA681946F868FFF77A
:1035F80073FEFB6801229A73F868FFF7D7FEFB8811
:103608001846FDF7D5FAFB8A0133FB82FB685B8914
:10361800FA8A9A42E6D300BF1837BD4680BD00003B
:103628002DE9F0478C460446089E002B4BD18A4270
:10363800154667D9B2FA82F24AB1C2F1200701FAF7
:1036480002F320FA07F7954047EA030C94404FEA43
:10365800154EBCFBFEF71FFA85F80EFB17C307FBD8
:1036680008F9210C41EA0343994509D9EB1807F1F8
:10367800FF3180F01C81994540F21981023F2B44AB
:10368800A3EB0903B3FBFEF00EFB103300FB08F1BC
:10369800A4B244EA0344A14209D92C1900F1FF332A
:1036A80080F00781A14240F2048102382C4440EAAC
:1036B80007400027641A1EB10023D440C6E900431E
:1036C8003946BDE8F0878B4209D9002E00F0EC801E
:1036D8000027C6E9000138463946BDE8F087B3FA45
:1036E80083F7002F48D18B4202D3824200F2FB803D
:1036F800841A61EB030301209C46002EE0D0C6E942
:10370800004CDDE702B9FFDEB2FA82F2002A40F08F
:103718008F800127491B4FEA15481FFA85F9B1FB2D
:10372800F8FE08FB1E1109FB0EF04FEA144C4CEA98
:103738000143984207D9EB180EF1FF3102D29842A3
:1037480000F2CD808E461B1AB3FBF8F008FB10334D
:1037580009FB00F9A4B244EA0344A14507D92C198E
:1037680000F1FF3302D2A14500F2B6801846A4EB5F
:10377800090440EA0E409EE7C7F12005BB4022FA43
:1037880005FC4CEA030C21FA05F44FEA1C4EB4FB85
:10379800FEF91FFA8CF80EFB194420FA05F3B9401C
:1037A80009FB08FA19430B0C43EA0444A24502FA40
:1037B80007F200FA07F30BD91CEB040409F1FF30F8
:1037C80080F08880A24540F28580A9F1020964440E
:1037D800A4EB0A04B4FBFEF00EFB104400FB08FA4D
:1037E80089B241EA0444A24508D91CEB040400F15B
:1037F800FF316BD2A24569D90238644440EA0940D6
:10380800A0FB0289A4EB0A044C454146CE4654D39A
:1038180051D0002E69D05A1A64EB0E0404FA05F54B
:1038280022FA07F3FC401D43C6E90054002747E786
:103838009540C2F1200321FA03F04FEA1548B0FB86
:10384800F8F71FFA85F908FB170024FA03F39140EB
:1038580007FB09FC0B43190C41EA00418C4504FAAB
:1038680002F407D9691807F1FF3031D28C452FD9F6
:10387800023F2944A1EB0C01B1FBF8F008FB101C36
:1038880000FB09FE99B241EA0C418E4507D9691837
:1038980000F1FF3318D28E4516D902382944A1EB1E
:1038A8000E0140EA07473AE73746304608E70F4631
:1038B800E6E61846FBE64345ABD2B8EB020169EBF6
:1038C8000C0201389646A4E71846E8E7084695E74B
:1038D8000746CFE781467BE702382C4447E7AEF13D
:1038E800020E2B442FE7384607E73746E8E600BFC5
:1038F800014B1868704700BFD403002070B50D4E07
:103908000D4D761BB61006D00024013455F8043B43
:103918009847A642F9D1094E094D01F0B1FC761B32
:10392800B61006D00024013455F8043B9847A64247
:10393800F9D170BDFC520008FC520008045300087D
:10394800FC520008F0B4860743D0541E002A3ED02B
:10395800CAB2034602E014F1FF3438D303F8012B4E
:103968009D07F8D1032C2BD9CDB245EA05250F2C9C
:1039780045EA054516D9A4F110073F0903F12006C9
:1039880006EB071603F1100242E9045542E9025515
:103998001032B242F8D104F00F040137032C03EBC4
:1039A80007130DD91E462246043A032A46F8045B3B
:1039B800FAD8221F22F003020432134404F003044D
:1039C8002CB1C9B21C4403F8011B9C42FBD1F0BCCA
:1039D800704714460346C5E770B5054688B00846E3
:1039E8000C4600F04FF8012202262149AB6B0590E6
:1039F8000792104404AA04940390AC6802960691B6
:103A080001921BB3616EB4F90C30CE079AB201D49F
:103A1800900525D5910406D4626E43F4005322F430
:103A28000052A3816266284601AA214600F0ECF8FC
:103A3800636E00280CBF0A254FF0FF35DA0702D461
:103A4800A3899B0506D5284608B070BD284600F016
:103A580085F8D7E7A06D00F07FFA284608B070BD5A
:103A6800A06D00F077FAB4F90C309AB2D2E700BF33
:103A7800F0520008024B01461868FFF7ADBF00BFBF
:103A8800D403002020F0030110F00300C0F100006F
:103A980051F8043B00F1040C4FEACC0C6FF0000223
:103AA8001CBF22FA0CF213434FF0010C4CEA0C2C09
:103AB8004CEA0C4CA3EB0C0222EA030212EACC12E9
:103AC80004BF51F8043B0430F4D0C2F1000102EA0B
:103AD8000102B2FA82F2C2F11F0200EBD200704773
:103AE800024B13B1024800F005B87047000000000F
:103AF800DD3B0008002301461A46184601F000B8CD
:103B0800002310B504468181C281C0E90033836077
:103B18004366C0E904338361194608225C30FFF725
:103B280011FF07480749084A084BC4E90740C4E998
:103B38000912E36204F15800BDE8104000F006BA2B
:103B480089490008AD490008E9490008094A000800
:103B5800014900F0D3B900BFED4B000810B5044689
:103B6800144800F0F7F9A26BFAB90320124904F5DA
:103B78003B73C4F8E832C4F8E022C4F8E402E16315
:103B880060680421FFF7BCFFA06801220921FFF744
:103B9800B7FFE06802221221FFF7B2FF01230548B0
:103BA800A363BDE8104000F0D7B90248BDE8104053
:103BB80000F0D2B9800D0020593B0008014800F000
:103BC800C9B900BF940D0020014800F0C5B900BF75
:103BD800940D002038B50A4C0A4D641BA4100AD075
:103BE80004F18043013B05EB8305013C55F804399A
:103BF8009847002CF9D1BDE8384001F047BB00BF19
:103C080008530008045300089368002B00F0DB8079
:103C18002DE9F04FB1F90C300C469BB2190783B06F
:103C2800824690462BD522694AB313F00202D8F88F
:103C3800006033D000273D46D4F824B0E169DFF8AE
:103C4800B892C5B14D452B463A4628BF4B4650461B
:103C5800D847002840F3BF80D8F8083007441B1A1B
:103C68002D1AC8F80830002B00F0A980D4F824B029
:103C7800E169002DE6D1D6E900750836E1E721466D
:103C8800504600F0D7FE002840F03081B4F90C30DF
:103C9800D8F800609BB213F00202CBD113F00109EF
:103CA8005ED14D46A7682068002D55D09A0540F191
:103CB8009C80AF42BB4600F2DE8013F4906F2FD099
:103CC800D4E9041707EB4707A0EB010B07EBD777FD
:103CD800681C7F105844B8423A4684BF07463A46A3
:103CE8005B0540F1D9801146504600F037F90028AD
:103CF80000F0F6805A4621690190FCF75BFAA28928
:103D0800019B22F4906242F08002A281A7EB0B0291
:103D180003EB0B006761AB462F4623612060A2606E
:103D28005A46494600F0F2FB2368A2685B44AB465A
:103D38000025D71BA7602360D8F80870D944A7EBE3
:103D48000B07C8F80870002F39D0B4F90C30A768F1
:103D58009BB22068002DA9D1D6E900950836A3E7C3
:103D680033469146104617464E469B46002F6ED066
:103D7800002876D020682169B9454B4628BF3B46C4
:103D88008842626903D9A5681544AB4276DC9A4239
:103D980000F398801346656A3246E1695046A847A1
:103DA800051E18DDB9EB05090FD00120D8F8083039
:103DB8002E445B1B7F1BC8F80830002BD6D100208F
:103DC80003B0BDE8F08F002070472146504601F04F
:103DD8001BF80028EAD0B4F90C304FF0FF3043F05C
:103DE8004003A38103B0BDE8F08F2369834217D352
:103DF8006269AA4214D83F4B676A9D4294BF2B461A
:103E08006FF0004393FBF2F3E16902FB03F35046C2
:103E18004A46B847B0F1000BDDDDA5EB0B058BE793
:103E2800AF4228BF2F4649463A4600F06FFBA368C9
:103E38002268DB1B3A44BB46A3602260002BECD10E
:103E48002146504600F0E0FF0028E6D0C3E70BF11A
:103E5800080353F8047C9B4653F8086C0833002F7A
:103E6800F7D03A460A21304600F00AFB38B3013051
:103E7800A0EB06097EE72F46AB4651E731462A46B6
:103E880000F044FB236821462B442360504600F091
:103E9800BBFF002886D09EE7504600F0A5FB0346EE
:103EA80000287FF433AF2169504601F02BF80C222B
:103EB800B4F90C30CAF8002023F080038DE707F12D
:103EC800010957E71A4631461D46019300F01EFBCB
:103ED800A1682268019BC91A1344A160236061E7A5
:103EE8000C22B4F90C30CAF8002076E74FF0FF3006
:103EF80066E700BFFEFFFF7F00FCFF7F2DE9F84368
:103F080010F538761ED0884607464FF00009D6E9E6
:103F18000154013D10D4A389013D012B08D9B4F9FE
:103F28000E30013304D021463846C04749EA00091B
:103F38006B1C04F16804EED13668002EE7D14846C0
:103F4800BDE8F883B1464846BDE8F883704700BF2E
:103F5800704700BF704700BF704700BF2DE9F04FA2
:103F680001F10B05162D83B0064623D8102900F25F
:103F7800B68000F02DFB102518230220CC4F3B44BF
:103F88005C68A3F10802944200F056816368E16816
:103F980023F0030323445A68A56842F00102E9604C
:103FA80030468D605A6000F019FB0834204603B093
:103FB800BDE8F08F35F0070500F19180A94200F2C5
:103FC8008E8000F005FBB5F5FC7FC0F064816B0ABC
:103FD80000F08C80042B00F23681AB0903F1390024
:103FE80003F1380CC100B24F39444C680839A1427A
:103FF80006D10CE0002A80F21B81E468A14206D0B9
:10400800636823F003035A1B0F2AF3DD60463C69FB
:10401800DFF8B0C264456FD0636823F003035A1B0E
:104028000F2A00F32681002AC7E904CC80F2178101
:10403800B3F5007F80F059810122DB089910134401
:104048008A40796857F833E007EBC3080A43A8F1B8
:104058000801C4E902E17A6047F83340CEF80C4021
:10406800012483109C4094424CD8144206D120F07D
:1040780003006400144200F10400FAD007EBC00901
:10408800CE468046DEF80C309E4507D107E1002A6F
:1040980080F21C81DB689E4500F00181596821F09F
:1040A80003014A1B0F2AF2DD45F001083046D3E927
:1040B80002E41D4442F00106C3F80480CEF80C4027
:1040C800C4F808E0C7E90455C5E902CC6E605A5047
:1040D800019300F083FA019B03F1080466E70024CA
:1040E8000C232046336003B0BDE8F08F4FF4007115
:1040F80040204FF03F0C76E701247A6883109C40FB
:104108009442B2D9BC68636823F00309A94503D374
:10411800A9EB05030F2B7BDC664BDFF8ACA11A6813
:10412800DAF8003005EB0208013300F03A8108F5AF
:10413800805808F10F0828F47F6828F00F084146D6
:10414800304600F00BFCB0F1FF3F834600F0F680EC
:1041580004EB0900584500F2EF80574A13684344BE
:10416800136000F03F81DAF8001001311BBFABEBA0
:1041780000001B18CAF800B013601BF0070300F01A
:104188002681C3F10801C3F580538B440833D84412
:10419800C8F30B08A3EB080841463046019200F02B
:1041A800DDFB431C019A00F03881A0EB0B01414470
:1041B80041F001011368BC424344C7F808B01360DA
:1041C800CBF8041015D0B9F10F0F40F222814FF04F
:1041D800050E6168A9F10C0020F0070001F001014B
:1041E800014304EB000C0F286160CCE901EE00F2FA
:1041F8002C81324A32481168BC688B42016888BFFA
:10420800136062688B4222F0030288BF036099E062
:1042180045F0010243F00103254462603046BD6069
:1042280008346B6000F0DAF9204603B0BDE8F08F7F
:1042380023445A68E168AFE6DC68A34208BF02304D
:104248003FF4E5AEA2E6142B70D9542B00F2AC80F3
:104258002B0B03F16F0003F16E0CC100C3E623447E
:104268005A68304642F001025A60083400F0B6F944
:104278009CE645F0010E42F001012544C4F804E033
:104288003046C7E90455C5E902CC6960E25000F040
:10429800A5F908348AE6E80805F108036EE608F18E
:1042A800010818F0030F0EF1080E7FF4EBAE60E082
:1042B80004080020640C0020340C00205C0C002052
:1042C800600C00200C0800200C0C00201C4619442F
:1042D8004A68DB6854F8085F42F001024A603046D9
:1042E800EB609D6000F07AF960E65A0A042A35D935
:1042F800142A6FD802F15C01C9005B3207EB010E8A
:104308007958AEF1080E8E4558D04A6822F003025B
:104318009A4202D989688E45F7D1D1F80CE07A68BB
:10432800C4E9021ECEF80840CC6099E603F15C00AF
:1043380003F15B0CC10056E6BC4272D0BC686268EF
:1043480022F003029542A2EB050302D80F2B3FF798
:104358005FAF304600F042F9002427E69A0902F1DF
:104368003901C9003832C9E7D9F80090994540F0B9
:10437800838010F0030FA9F1080300F1FF30F3D197
:104388007B6823EA04037B6064009C423FF6BAAE74
:104398001CB9B7E6640008F104081C42FAD040468C
:1043A8006CE608F11008CAE6B3F5AA7F26D8EB0B2D
:1043B80003F1780003F1770CC10014E64FF001080F
:1043C8007B68921008FA02F21A437A60A8E74FF461
:1043D8008053DCE6542A29D81A0B02F16F01C90070
:1043E8006E328BE7C0F30B0100297FF4BCAE09EBFA
:1043F8000802B96842F001024A60FAE640F25452F3
:1044080093421CD8AB0C03F17D0003F17C0CC10076
:10441800E9E50123CBF804309BE701214FF00008C0
:10442800C8E6164A1368434413609CE6B2F5AA7FAF
:1044380014D8DA0B02F17801C90077325EE74FF43D
:104448007E717F204FF07E0CCDE504F108013046E7
:10445800019200F057FD019A1368CAE640F25451E0
:104468008A4205D89A0C02F17D01C9007C3245E7E1
:104478004FF47E717E2241E77B6885E7340C00208B
:10448800830770B4CDB23DD0541E0AB30378AB4253
:104498001FD0431C05E014F1FF3419D30278AA4257
:1044A80017D013F0030F184603F10103F3D1032CBF
:1044B80011D84CB30378AB420BD00444431C02E040
:1044C8000278AA4205D09C42184603F10103F7D1AD
:1044D800002070BC704706460A0292B22A4342EA9C
:1044E8000242336830465340A3F1013121EA030305
:1044F80013F0803F06F10406DCD1043C032C30465F
:10450800EFD8D6E71446D2E72046E2E78842F0B46F
:104518000DD98B1883420AD9841832B1224613F870
:10452800014D994202F8014DF9D1F0BC70470F2AAC
:1045380048D940EA01039B0746D1A2F110031B09A1
:1045480001F1200707EB031701F1100400F1100532
:1045580054F8106C103445F8106C54F81C6C103575
:1045680045F81C6C54F8186C45F8186C54F8146C21
:10457800BC4245F8146CEBD1013302F00F051B0166
:10458800032D1944034421D90F462C461E1F57F802
:1045980004CB043C032C46F804CFF8D82C1F24F095
:1045A800030404342344214402F00302002ABCD04B
:1045B800013B0A4411F8014B914203F8014FF9D12C
:1045C800F0BC70470346F1E70346F1E72A46EDE7FA
:1045D8000148FFF7BFBC00BF840D00200148FFF76A
:1045E800BBBC00BF840D00202DE9F04F924683B07C
:1045F800002900F0A1800D4680460AF10B04FFF760
:10460800E7FF55F8042C162C22F00306A5F108073D
:104618003ED810242146A2453FD88E4207EB060912
:1046280074DAC84B9868484500F0AA80D9F80400A5
:1046380020F001034B445B68DB0740F18380D2071D
:1046480034D551464046FFF789FC8246E0B155F81B
:10465800043CA0F1080223F001033B44934200F01C
:104668000E81321F242A00F21481132A296800F2CD
:10467800FB8003462A4619605168596092689A601F
:104688002946404600F03EFC4046FFF7A7FF4FE0B2
:1046980024F00704002C2146BDDA4FF0000A0C2351
:1046A8005046C8F8003003B0BDE8F08F55F8083C14
:1046B800A7EB030BDBF8042022F00302B3188B42AC
:1046C800BFDBDA46DBF80C105AF8080F321F242A31
:1046D800C1600BEB0309886000F2BE80132A2968C9
:1046E80040F2D580CBF8081069681B2ACBF80C106B
:1046F800A96800F2E5800BF11002083511606968BD
:104708001E465160AB685F46554693607A68331B16
:104718000F2B02F0010222D832437A60D9F8043014
:1047280043F00103C9F804304046FFF757FFAA4693
:10473800504603B0BDE8F08F114603B0BDE8F04F16
:10474800FFF70CBC20F0030033188B4263DBD9E978
:1047580002121E46CA6007EB03099160D6E73919B1
:10476800224343F001037A604B60D9F804300831E2
:1047780043F00103C9F80430404600F0C3FBD3E717
:10478800D0F8049004F1100029F00309B1448145E0
:1047980080F28380D2073FF554AF55F8082CA7EB79
:1047A800020BDBF8042022F003029144484585DC23
:1047B800DA46DBF80C105AF8080F321F242AC160B9
:1047C800886000F2AB80132A296840F2A580CBF8F4
:1047D800081069681B2ACBF80C10A96800F2A5809C
:1047E8000BF110020835116069685160A968916081
:1047F800A9EB04020BEB040142F0010299604A6044
:10480800DBF80430404603F001031C43CBF80440B6
:10481800FFF7E4FE8CE7D3073FF513AF55F8083CE4
:10482800A7EB030BDBF8042022F0030210448319E2
:104838008B42FFF643AFD9E90201DA46C1608860CE
:104848005AF8080FDBF80C10321F242AC1600BEB52
:10485800030988607FF642AF294650461E465F46E8
:10486800FFF754FE554651E701606B681B2A436009
:1048780032D805F1080200F10803A968FBE650F8F0
:10488800043C23F003031E4407EB06093EE75246A7
:1048980034E72946FFF73AFEF2E6A9EB0409274474
:1048A80049F001029F607A6055F8043C404603F0E5
:1048B80001031C4345F8044CFFF790FEAA4637E76E
:1048C800CBF81010E968242ACBF8141029690FD006
:1048D8000BF11802103511E7AB68242A8360EB68E6
:1048E800C3600FD005F1100200F110032969C2E678
:1048F800CBF8181069690BF12002CBF81C10A969D4
:104908001835FBE62B6905F118020361696900F1A6
:1049180018034161A969AEE6524664E72946504644
:104928000193FFF7F3FD019B62E7CBF81010E968EC
:10493800242ACBF81410296906D00BF11802103577
:1049480051E700BF04080020CBF8181069690BF183
:104958002002CBF81C10A969183544E738B50023A4
:10496800064C054608462360FCF72AF8431C00D08D
:1049780038BD2368002BFBD02B6038BD980D002074
:1049880010B50C46B1F90E1000F03EFC002803DB10
:10499800236D0344236510BDA38923F48053A381A9
:1049A80010BD00BF2DE9F041B1F90C409846E30570
:1049B8000D461746B1F90E10064607D50223002208
:1049C80000F094FBB5F90C40B5F90E1024F48054AE
:1049D800AC8143463A463046BDE8F04100F014B891
:1049E80010B50C46B1F90E1000F080FBA389421CEB
:1049F8000EBF23F4805343F480532065A38110BD78
:104A0800B1F90E1000F0DCB8F8B50E460025084CD8
:104A1800114607461A4630462560FBF7B1FC431C91
:104A280000D0F8BD2368002BFBD03B60F8BD00BF69
:104A3800980D002038B5314B054618680C4610B162
:104A4800836B002B3AD0B4F90C2093B218070CD51D
:104A58002069A8B113F0010220D000226369A26086
:104A68005B42A36100B3002038BDD9063DD5580785
:104A780027D4206942F00803A3819BB20028E9D11A
:104A880003F42072B2F5007FE4D02846214600F0F6
:104A980071FBA389206913F00102DED1990758BF81
:104AA8006269A2600028DED1B4F90C301A06DBD5A1
:104AB80043F04003A3814FF0FF3038BDFFF74EF8B5
:104AC800C1E7216B51B104F14003994204D0284653
:104AD80000F018FAB4F90C2000232363002320699E
:104AE80022F02402C4E90003C4E7092342F040028B
:104AF8002B604FF0FF30A28138BD00BFD4030020E7
:104B08002DE9F8432B4D0646286898460F469146EE
:104B1800FFF720FA284B1C68D4F84831002B3DD009
:104B28005A681F2A0DDC02F1010C16BB0232C3F8C9
:104B380004C0286843F82270FFF70EFA0020BDE889
:104B4800F8831E4B7BB34FF4C870AFF30080034665
:104B580048B30020D4F848114FF0010CC3E9001005
:104B68000246C4F84831C3F88801C3F88C01002E06
:104B7800DCD0012103EB8204C4F88890D3F88801C3
:104B880091400843022EC3F88801C4F80881CDD1AA
:104B9800D3F88C010143C3F88C11C7E704F5A67359
:104BA800C4F84831BCE72868FFF7D6F94FF0FF3062
:104BB800C5E700BF00080020EC5200080000000014
:104BC80038B50023064C054608462360FBF724FF4A
:104BD800431C00D038BD2368002BFBD02B6038BDA8
:104BE800980D002070B5002948D005460C4610B134
:104BF800836B002B48D0626EB4F90C30D00740D4D8
:104C0800990530D52146284600F054F8E36A06464F
:104C180033B1E169284698470028B8BF4FF0FF36FE
:104C2800A3891A063CD4216B41B104F1400399428F
:104C380002D0284600F066F900232363616C21B195
:104C4800284600F05FF900236364FEF7B7FF0022EF
:104C5800636EA281DB071FD5A06DFFF779F9FEF718
:104C6800B3FF304670BDA06DFFF774F9B4F90C308E
:104C7800002BC7D1666E16F0010616D00026304606
:104C880070BD002BFAD0BDE7FEF768FF626EB4F97D
:104C98000C30D007F5D4B3E7A06DFFF75DF9DBE77B
:104CA8002169284600F02EF9BDE7A06DFFF754F9F9
:104CB800304670BDB1F90C302DE9F0419AB20C467E
:104CC8001107804644D4626843F40063002AA38134
:104CD8005ADDA56A002D54D000229BB2D8F8006096
:104CE800E169C8F8002013F4805240F08480012361
:104CF8004046A847431C4BD0A389A56AE1695F07D2
:104D080005D56268236B801A0BB1E36BC01A0246A3
:104D180000234046A847451C46D00021B4F90C3072
:104D2800226923F40063A381DB04C4E9002100D5D0
:104D38002065216BC8F8006019B304F1400399425B
:104D480002D0404600F0DEF800202063BDE8F08184
:104D58002669B6B1920718BF0023256808BF6369A2
:104D68002660AD1BA3600AE02B463246676AE169FC
:104D78004046B8470028A5EB000506442BDD002D6A
:104D8800F2DC0020BDE8F081E26B002AA1DCF8E744
:104D9800D8F80030002BAFD01D2B01D0162B2CD10A
:104DA800C8F800600020EDE7D8F800501D2D1AD88B
:104DB800144BB4F90C20EB40DB4313F0010314D17E
:104DC800216922F40062C4E90013D104A281B0D59C
:104DD800002DAED1ACE7A3894FF0FF3043F040037C
:104DE800A381BDE8F081B4F90C2042F04002A28111
:104DF8004FF0FF30C6E7206D81E7A38943F04003F9
:104E0800A381BFE70100402038B50D46044608B12C
:104E1800836BA3B1B5F90C00B8B16B6EDB0701D495
:104E280081051AD520462946FFF744FF6B6E0446D4
:104E3800DA0702D4AB899B050AD5204638BDFEF7B0
:104E48008DFEB5F90C000028E7D10446204638BD90
:104E5800A86DFFF781F8204638BDA86DFFF77AF8EE
:104E6800E0E700BFF8B50C46234F0646FFF7B0FB56
:104E7800BB68C4F57E615D680F3125F003052944E0
:104E880021F47F6121F00F01A1F58054B4F5805F12
:104E980007DB00213046FFF761FDBB682B449842D1
:104EA80004D03046FFF79AFB0020F8BD6142304637
:104EB800FFF754FD01300DD0104BBA6819682D1B4F
:104EC80045F001053046091B55601960FFF786FB60
:104ED8000120F8BD00213046FFF740FDBA68831A6B
:104EE8000F2BDEDD064943F001030C680349001B64
:104EF80053600860D5E700BF04080020340C002088
:104F08000C0C0020002953D0F8B50D460646FFF7D3
:104F18005FFB55F804CC714FA5F108012CF0010393
:104F2800CA18B8685468904224F0030453D01CF09F
:104F3800010F546002EB04003BD155F808CC4068DF
:104F4800A1EB0C018D6807F1080E7545634400F06C
:104F5800010075D0D1F80CC0C5F80CC0CCF80850C9
:104F680060B343F001024A60CB50B3F5007F50D3E1
:104F78005A0A042A70D89A0902F13905ED0002F19B
:104F880038007C197A59083C944278D0506820F04F
:104F98000300984271D992689442F7D1E368C1E955
:104FA800024330469960E160BDE8F840FFF716BB60
:104FB8007047406800F001000028D2D19068484D41
:104FC8002344A84243F0010462D0D268C2609060D2
:104FD8004C60CB50C9E71CF0010F234407D155F8AA
:104FE800084C091BD1E902022344C26090603D4A83
:104FF80043F00100126848609A42B96004D83A4BFD
:1050080030461968FFF72EFF3046BDE8F840FFF735
:10501800E5BA0122DB087C689810134482402243D9
:1050280007EBC30057F833400838C1E902407A60FB
:10503800304647F83310E160BDE8F840FFF7CEBAD4
:10504800002845D1D2E90202234443F00104C2609A
:1050580090604C60CB50D7E7142A08D9542A1ED840
:105068001A0B02F16F05ED0002F16E0089E702F1FB
:105078005C05ED0002F15B0083E714468EE701232F
:105088008210786803FA02F202437A60234686E7C0
:10509800C7E90411C1E902004C60CB50B4E7B2F58E
:1050A800AA7F06D8DA0B02F17805ED0002F1770045
:1050B80067E740F25450824206D89A0C02F17D0507
:1050C800ED0002F17C005CE74FF47E757E2058E726
:1050D80043F001004860136096E700BF0408002011
:1050E8000C080020100C0020640C0020F8B50E46B7
:1050F8000025084C114607461A4630462560FBF73E
:10510800AFFC431C00D0F8BD2368002BFBD03B60EC
:10511800F8BD00BF980D002070B50C46B1F90E100F
:1051280096B0002915461E460FDA0023A28933607F
:1051380012F0800004D14FF480632B6016B070BD6C
:10514800402218462A6016B070BD6A4600F072F810
:105158000028EADB019B4FF4806203F47043A3F557
:105168000053B3FA83F34FF400605B0933602A609D
:1051780016B070BD8A890B46920706D5012103F146
:10518800430259611A601A61704770B582B001AB69
:105198006A460C460546FFF7BFFF009906462846B3
:1051A800FEF7DCFEB4F90C30D8B1164A0099EA6370
:1051B800019A43F08003A3812060C4E904011AB96D
:1051C8003343A38102B070BD2846B4F90E1000F035
:1051D80045F8A0B1A38923F0030343F001031BB2F0
:1051E800EEE79A05EED4012123F0030304F143020C
:1051F80043F00203A381616122602261E2E7B4F90E
:105208000C30DDE7593B0008F8B50E460025084C80
:10521800114607461A4630462560FBF7B3FB431C88
:1052280000D0F8BD2368002BFBD03B60F8BD00BF61
:10523800980D002070B50D460023074C0646114610
:1052480028462360FBF7F3FB431C00D070BD23689E
:10525800002BFBD0336070BD980D002038B50023BB
:10526800064C054608462360FBF7F0FB431C00D0BC
:1052780038BD2368002BFBD02B6038BD980D00206B
:10528800F8B500BFF8BC08BC9E467047F8B500BF2B
:08529800F8BC08BC9E467047FB
:1052A00053773238313220496E69740D00000000A6
:1052B000746865617465724368617365200D0000F0
:1052C0007261696E626F77200D00000000000000BF
:1052D00000000000010203040607080900000000A6
:1052E000010203040006101600061016D803002061
:0452F0000A000000B0
:0852F40034E3FF7F010000001C
:0852FC00E93A00081103000863
:04530400E9020008B2
:105308000024F400100000000100000088000000E4
:105318000000000000000000000000000000000085
:105328000000000000000000000000000000000075
:105338000000000000000000000000000000000065
:105348000000000000000000000000000000000055
:105358000000000000000000000000000000000045
:105368000000000000000000000000000000000035
:105378000000000000000000000000000000000025
:105388000000000000000000000000000000000015
:105398000000000000000000000000000000000005
:1053A80000000000000000000000000000000000F5
:1053B80000000000000000000000000000000000E5
:1053C80000000000000000000000000000000000D5
:1053D80000000000000000000000000000000000C5
:1053E80000000000000000000000000000000000B5
:1053F80000000000000000000000000000000000A5
:105408000000000000000000000000000000000094
:105418000000000000000000000000000000000084
:105428000000000000000000000000000000000074
:105438000000000000000000000000000000000064
:105448000000000000000000000000000000000054
:105458000000000000000000000000000000000044
:105468000000000000000000000000000000000034
:105478000000000000000000000000000000000024
:105488000000000000000000000000000000000014
:105498000000000000000000000000000000000004
:1054A80000000000000000000000000000000000F4
:1054B80000000000000000000000000000000000E4
:1054C80000000000000000000000000000000000D4
:1054D80000000000000000000000000000000000C4
:1054E80000000000000000000000000000000000B4
:1054F800880000000000000000000000000000001C
:105508000000000000000000000000000000000093
:105518000000000000000000000000000000000083
:105528000000000000000000000000000000000073
:105538000000000000000000000000000000000063
:105548000000000000000000000000000000000053
:105558000000000000000000000000000000000043
:105568000000000000000000000000000000000033
:105578000000000000000000000000000000000023
:105588000000000000000000000000000000000013
:105598000000000000000000000000000000000003
:1055A80000000000000000000000000000000000F3
:1055B80000000000000000000000000000000000E3
:1055C80000000000000000000000000000000000D3
:1055D80000000000000000000000000000000000C3
:1055E80000000000000000000000000000000000B3
:1055F80000000000000000000000000000000000A3
:105608000000000000000000000000000000000092
:105618000000000000000000000000000000000082
:105628000000000000000000000000000000000072
:105638000000000000000000000000000000000062
:105648000000000000000000000000000000000052
:105658000000000000000000000000000000000042
:105668000000000000000000000000000000000032
:105678000000000000000000000000000000000022
:105688000000000000000000000000000000000012
:105698000000000000000000000000000000000002
:1056A80000000000000000000000000000000000F2
:1056B80000000000000000000000000000000000E2
:1056C80000000000000000000000000000000000D2
:1056D80000000000D803002000000000C4060020DD
:1056E8002C070020940700200000000000000000A4
:1056F80000000000000000000000000000000000A2
:105708000000000000000000000000000000000091
:105718000000000000000000000000000000000081
:105728000000000000000000000000000000000071
:105738000000000000000000000000000000000061
:105748000000000000000000000000000000000051
:105758000000000000000000000000000000000041
:105768000000000000000000000000000000000031
:105778000000000000000000000000000000000021
:1057880001000000000000000E33CDAB34126DE6BE
:10579800ECDE05000B000000000000000000000027
:1057A80000000000000000000000000000000000F1
:1057B80000000000000000000000000000000000E1
:1057C80000000000000000000000000000000000D1
:1057D80000000000000000000000000000000000C1
:105B0800740D0020000000000000000004080020C0
:105B1800040800200C0800200C08002014080020AD
:105B2800140800201C0800201C080020240800205D
:105B3800240800202C0800202C080020340800200D
:105B4800340800203C0800203C08002044080020BD
:105B5800440800204C0800204C080020540800206D
:105B6800540800205C0800205C080020640800201D
:105B7800640800206C0800206C08002074080020CD
:105B8800740800207C0800207C080020840800207D
:105B9800840800208C0800208C080020940800202D
:105BA800940800209C0800209C080020A4080020DD
:105BB800A4080020AC080020AC080020B40800208D
:105BC800B4080020BC080020BC080020C40800203D
:105BD800C4080020CC080020CC080020D4080020ED
:105BE800D4080020DC080020DC080020E40800209D
:105BF800E4080020EC080020EC080020F40800204D
:105C0800F4080020FC080020FC08002004090020FB
:105C1800040900200C0900200C09002014090020A8
:105C2800140900201C0900201C0900202409002058
:105C3800240900202C0900202C0900203409002008
:105C4800340900203C0900203C09002044090020B8
:105C5800440900204C0900204C0900205409002068
:105C6800540900205C0900205C0900206409002018
:105C7800640900206C0900206C09002074090020C8
:105C8800740900207C0900207C0900208409002078
:105C9800840900208C0900208C0900209409002028
:105CA800940900209C0900209C090020A4090020D8
:105CB800A4090020AC090020AC090020B409002088
:105CC800B4090020BC090020BC090020C409002038
:105CD800C4090020CC090020CC090020D4090020E8
:105CE800D4090020DC090020DC090020E409002098
:105CF800E4090020EC090020EC090020F409002048
:105D0800F4090020FC090020FC090020040A0020F6
:105D1800040A00200C0A00200C0A0020140A0020A3
:105D2800140A00201C0A00201C0A0020240A002053
:105D3800240A00202C0A00202C0A0020340A002003
:105D4800340A00203C0A00203C0A0020440A0020B3
:105D5800440A00204C0A00204C0A0020540A002063
:105D6800540A00205C0A00205C0A0020640A002013
:105D7800640A00206C0A00206C0A0020740A0020C3
:105D8800740A00207C0A00207C0A0020840A002073
:105D9800840A00208C0A00208C0A0020940A002023
:105DA800940A00209C0A00209C0A0020A40A0020D3
:105DB800A40A0020AC0A0020AC0A0020B40A002083
:105DC800B40A0020BC0A0020BC0A0020C40A002033
:105DD800C40A0020CC0A0020CC0A0020D40A0020E3
